{
  "contractName": "AudioEyes",
  "abi": [
    {
      "inputs": [],
      "name": "owner",
      "outputs": [
        {
          "internalType": "address",
          "name": "",
          "type": "address"
        }
      ],
      "stateMutability": "view",
      "type": "function",
      "constant": true
    },
    {
      "inputs": [
        {
          "internalType": "string",
          "name": "doc",
          "type": "string"
        }
      ],
      "name": "requestTranscription",
      "outputs": [],
      "stateMutability": "payable",
      "type": "function",
      "payable": true
    },
    {
      "inputs": [
        {
          "internalType": "uint256",
          "name": "price",
          "type": "uint256"
        }
      ],
      "name": "changeSpamFee",
      "outputs": [],
      "stateMutability": "nonpayable",
      "type": "function"
    },
    {
      "inputs": [],
      "name": "getSpamFee",
      "outputs": [
        {
          "internalType": "uint256",
          "name": "fee",
          "type": "uint256"
        }
      ],
      "stateMutability": "view",
      "type": "function",
      "constant": true
    },
    {
      "inputs": [
        {
          "internalType": "string",
          "name": "docAddr",
          "type": "string"
        },
        {
          "internalType": "string",
          "name": "transcription",
          "type": "string"
        }
      ],
      "name": "submitTranscription",
      "outputs": [],
      "stateMutability": "nonpayable",
      "type": "function"
    },
    {
      "inputs": [
        {
          "internalType": "string",
          "name": "docAddr",
          "type": "string"
        }
      ],
      "name": "getTranscription",
      "outputs": [
        {
          "internalType": "string",
          "name": "trans",
          "type": "string"
        }
      ],
      "stateMutability": "view",
      "type": "function",
      "constant": true
    },
    {
      "inputs": [
        {
          "internalType": "string",
          "name": "docAddr",
          "type": "string"
        }
      ],
      "name": "tip",
      "outputs": [],
      "stateMutability": "payable",
      "type": "function",
      "payable": true
    }
  ],
  "bytecode": "0x608060405273501456fbcaff4553267b203322c6e5c6bf6898176000806101000a81548173ffffffffffffffffffffffffffffffffffffffff021916908373ffffffffffffffffffffffffffffffffffffffff16021790555067016345785d8a0000600155600060025560006003556000600455600a600555600a600655600060075534801561008e57600080fd5b50611e538061009e6000396000f3fe6080604052600436106100705760003560e01c80638da5cb5b1161004e5780638da5cb5b146100f2578063b5e924d21461011d578063cb56393c14610139578063ef6cec0d1461015557610070565b806312ec68e414610075578063356006821461009e5780634c2aaa42146100c7575b600080fd5b34801561008157600080fd5b5061009c60048036038101906100979190611590565b610192565b005b3480156100aa57600080fd5b506100c560048036038101906100c091906115fc565b610c9e565b005b3480156100d357600080fd5b506100dc610d36565b6040516100e99190611802565b60405180910390f35b3480156100fe57600080fd5b50610107610d40565b6040516101149190611765565b60405180910390f35b6101376004803603810190610132919061154f565b610d64565b005b610153600480360381019061014e919061154f565b6110d8565b005b34801561016157600080fd5b5061017c6004803603810190610177919061154f565b6112af565b6040516101899190611780565b60405180910390f35b60006009836040516101a49190611739565b908152602001604051809103902060405180610100016040529081600082015481526020016001820154815260200160028201548152602001600382015481526020016004820154815260200160058201805461020090611bb6565b80601f016020809104026020016040519081016040528092919081815260200182805461022c90611bb6565b80156102795780601f1061024e57610100808354040283529160200191610279565b820191906000526020600020905b81548152906001019060200180831161025c57829003601f168201915b505050505081526020016006820160009054906101000a900473ffffffffffffffffffffffffffffffffffffffff1673ffffffffffffffffffffffffffffffffffffffff1673ffffffffffffffffffffffffffffffffffffffff1681526020016006820160149054906101000a900460ff161515151581525050905060005b600b805490508110156107d5576000600b8281548110610341577f4e487b7100000000000000000000000000000000000000000000000000000000600052603260045260246000fd5b906000526020600020906007020160405180610100016040529081600082015481526020016001820154815260200160028201548152602001600382015481526020016004820154815260200160058201805461039d90611bb6565b80601f01602080910402602001604051908101604052809291908181526020018280546103c990611bb6565b80156104165780601f106103eb57610100808354040283529160200191610416565b820191906000526020600020905b8154815290600101906020018083116103f957829003601f168201915b505050505081526020016006820160009054906101000a900473ffffffffffffffffffffffffffffffffffffffff1673ffffffffffffffffffffffffffffffffffffffff1673ffffffffffffffffffffffffffffffffffffffff1681526020016006820160149054906101000a900460ff1615151515815250509050600381604001516104a39190611a9d565b81600001516003546104b59190611af7565b106107c15760008160200151905060006001600b805490506104d79190611af7565b905081600b8281548110610514577f4e487b7100000000000000000000000000000000000000000000000000000000600052603260045260246000fd5b906000526020600020906007020160010181905550600b8181548110610563577f4e487b7100000000000000000000000000000000000000000000000000000000600052603260045260246000fd5b9060005260206000209060070201600b83815481106105ab577f4e487b7100000000000000000000000000000000000000000000000000000000600052603260045260246000fd5b9060005260206000209060070201600082015481600001556001820154816001015560028201548160020155600382015481600301556004820154816004015560058201816005019080546105ff90611bb6565b61060a929190611362565b506006820160009054906101000a900473ffffffffffffffffffffffffffffffffffffffff168160060160006101000a81548173ffffffffffffffffffffffffffffffffffffffff021916908373ffffffffffffffffffffffffffffffffffffffff1602179055506006820160149054906101000a900460ff168160060160146101000a81548160ff021916908315150217905550905050600b8054806106da577f4e487b7100000000000000000000000000000000000000000000000000000000600052603160045260246000fd5b6001900381819060005260206000209060070201600080820160009055600182016000905560028201600090556003820160009055600482016000905560058201600061072791906113ef565b6006820160006101000a81549073ffffffffffffffffffffffffffffffffffffffff02191690556006820160146101000a81549060ff021916905550509055600060098460a0015160405161077c9190611739565b908152602001604051809103902060060160146101000a81548160ff0219169083151502179055506001600360008282546107b79190611af7565b9250508190555050505b5080806107cd90611c19565b9150506102f8565b5060003373ffffffffffffffffffffffffffffffffffffffff16826060015160405161080090611750565b60006040518083038185875af1925050503d806000811461083d576040519150601f19603f3d011682016040523d82523d6000602084013e610842565b606091505b5050905080610886576040517f08c379a000000000000000000000000000000000000000000000000000000000815260040161087d906117c2565b60405180910390fd5b60008260200151905060006001600b805490506108a39190611af7565b905081600b82815481106108e0577f4e487b7100000000000000000000000000000000000000000000000000000000600052603260045260246000fd5b906000526020600020906007020160010181905550600b818154811061092f577f4e487b7100000000000000000000000000000000000000000000000000000000600052603260045260246000fd5b9060005260206000209060070201600b8381548110610977577f4e487b7100000000000000000000000000000000000000000000000000000000600052603260045260246000fd5b9060005260206000209060070201600082015481600001556001820154816001015560028201548160020155600382015481600301556004820154816004015560058201816005019080546109cb90611bb6565b6109d6929190611362565b506006820160009054906101000a900473ffffffffffffffffffffffffffffffffffffffff168160060160006101000a81548173ffffffffffffffffffffffffffffffffffffffff021916908373ffffffffffffffffffffffffffffffffffffffff1602179055506006820160149054906101000a900460ff168160060160146101000a81548160ff021916908315150217905550905050600b805480610aa6577f4e487b7100000000000000000000000000000000000000000000000000000000600052603160045260246000fd5b60019003818190600052602060002090600702016000808201600090556001820160009055600282016000905560038201600090556004820160009055600582016000610af391906113ef565b6006820160006101000a81549073ffffffffffffffffffffffffffffffffffffffff02191690556006820160146101000a81549060ff0219169055505090556000600987604051610b449190611739565b908152602001604051809103902060060160146101000a81548160ff021916908315150217905550600160036000828254610b7f9190611af7565b92505081905550600160026000828254610b9991906118a5565b9250508190555085600887604051610bb19190611739565b90815260200160405180910390206000019080519060200190610bd592919061142f565b5084600887604051610be79190611739565b90815260200160405180910390206001019080519060200190610c0b92919061142f565b5033600887604051610c1d9190611739565b908152602001604051809103902060020160006101000a81548173ffffffffffffffffffffffffffffffffffffffff021916908373ffffffffffffffffffffffffffffffffffffffff1602179055508360800151600887604051610c819190611739565b908152602001604051809103902060030181905550505050505050565b60008054906101000a900473ffffffffffffffffffffffffffffffffffffffff1673ffffffffffffffffffffffffffffffffffffffff163373ffffffffffffffffffffffffffffffffffffffff1614610d2c576040517f08c379a0000000000000000000000000000000000000000000000000000000008152600401610d23906117e2565b60405180910390fd5b8060018190555050565b6000600154905090565b60008054906101000a900473ffffffffffffffffffffffffffffffffffffffff1681565b600154341015610da9576040517f08c379a0000000000000000000000000000000000000000000000000000000008152600401610da0906117a2565b60405180910390fd5b60006040518061010001604052806002548152602001600b8054905081526020016001600354610dd991906118a5565b8152602001600154815260200160015434610df49190611af7565b81526020018381526020013373ffffffffffffffffffffffffffffffffffffffff168152602001600115158152509050600254600983604051610e379190611739565b908152602001604051809103902060000181905550600b80549050600983604051610e629190611739565b9081526020016040518091039020600101819055506001600354610e8691906118a5565b600983604051610e969190611739565b908152602001604051809103902060020181905550600154600983604051610ebe9190611739565b90815260200160405180910390206003018190555060015434610ee19190611af7565b600983604051610ef19190611739565b90815260200160405180910390206004018190555081600983604051610f179190611739565b90815260200160405180910390206005019080519060200190610f3b92919061142f565b5033600983604051610f4d9190611739565b908152602001604051809103902060060160006101000a81548173ffffffffffffffffffffffffffffffffffffffff021916908373ffffffffffffffffffffffffffffffffffffffff1602179055506001600983604051610fae9190611739565b908152602001604051809103902060060160146101000a81548160ff021916908315150217905550600b819080600181540180825580915050600190039060005260206000209060070201600090919091909150600082015181600001556020820151816001015560408201518160020155606082015181600301556080820151816004015560a082015181600501908051906020019061105092919061142f565b5060c08201518160060160006101000a81548173ffffffffffffffffffffffffffffffffffffffff021916908373ffffffffffffffffffffffffffffffffffffffff16021790555060e08201518160060160146101000a81548160ff02191690831515021790555050506001600360008282546110cd91906118a5565b925050819055505050565b60006008826040516110ea9190611739565b908152602001604051809103902060020160009054906101000a900473ffffffffffffffffffffffffffffffffffffffff169050600034905060006064600554836111359190611a9d565b61113f91906118fb565b9050806004600082825461115391906118a5565b92505081905550600081836111689190611af7565b90506000600260075461117b919061197f565b6002600a60008873ffffffffffffffffffffffffffffffffffffffff1673ffffffffffffffffffffffffffffffffffffffff168152602001908152602001600020546111c7919061197f565b6006546111d49190611a9d565b6111de91906118fb565b9050600081836111ee91906118a5565b90508573ffffffffffffffffffffffffffffffffffffffff166108fc829081150290604051600060405180830381858888f19350505050158015611236573d6000803e3d6000fd5b50806007600082825461124991906118a5565b9250508190555080600a60008873ffffffffffffffffffffffffffffffffffffffff1673ffffffffffffffffffffffffffffffffffffffff168152602001908152602001600020600082825461129f91906118a5565b9250508190555050505050505050565b60606008826040516112c19190611739565b908152602001604051809103902060010180546112dd90611bb6565b80601f016020809104026020016040519081016040528092919081815260200182805461130990611bb6565b80156113565780601f1061132b57610100808354040283529160200191611356565b820191906000526020600020905b81548152906001019060200180831161133957829003601f168201915b50505050509050919050565b82805461136e90611bb6565b90600052602060002090601f01602090048101928261139057600085556113de565b82601f106113a157805485556113de565b828001600101855582156113de57600052602060002091601f016020900482015b828111156113dd5782548255916001019190600101906113c2565b5b5090506113eb91906114b5565b5090565b5080546113fb90611bb6565b6000825580601f1061140d575061142c565b601f01602090049060005260206000209081019061142b91906114b5565b5b50565b82805461143b90611bb6565b90600052602060002090601f01602090048101928261145d57600085556114a4565b82601f1061147657805160ff19168380011785556114a4565b828001600101855582156114a4579182015b828111156114a3578251825591602001919060010190611488565b5b5090506114b191906114b5565b5090565b5b808211156114ce5760008160009055506001016114b6565b5090565b60006114e56114e084611842565b61181d565b9050828152602081018484840111156114fd57600080fd5b611508848285611b74565b509392505050565b600082601f83011261152157600080fd5b81356115318482602086016114d2565b91505092915050565b60008135905061154981611e06565b92915050565b60006020828403121561156157600080fd5b600082013567ffffffffffffffff81111561157b57600080fd5b61158784828501611510565b91505092915050565b600080604083850312156115a357600080fd5b600083013567ffffffffffffffff8111156115bd57600080fd5b6115c985828601611510565b925050602083013567ffffffffffffffff8111156115e657600080fd5b6115f285828601611510565b9150509250929050565b60006020828403121561160e57600080fd5b600061161c8482850161153a565b91505092915050565b61162e81611b2b565b82525050565b600061163f82611873565b6116498185611889565b9350611659818560208601611b83565b61166281611d1e565b840191505092915050565b600061167882611873565b611682818561189a565b9350611692818560208601611b83565b80840191505092915050565b60006116ab602e83611889565b91506116b682611d3c565b604082019050919050565b60006116ce60008361187e565b91506116d982611d8b565b600082019050919050565b60006116f1601083611889565b91506116fc82611d8e565b602082019050919050565b6000611714603383611889565b915061171f82611db7565b604082019050919050565b61173381611b5d565b82525050565b6000611745828461166d565b915081905092915050565b600061175b826116c1565b9150819050919050565b600060208201905061177a6000830184611625565b92915050565b6000602082019050818103600083015261179a8184611634565b905092915050565b600060208201905081810360008301526117bb8161169e565b9050919050565b600060208201905081810360008301526117db816116e4565b9050919050565b600060208201905081810360008301526117fb81611707565b9050919050565b6000602082019050611817600083018461172a565b92915050565b6000611827611838565b90506118338282611be8565b919050565b6000604051905090565b600067ffffffffffffffff82111561185d5761185c611cef565b5b61186682611d1e565b9050602081019050919050565b600081519050919050565b600081905092915050565b600082825260208201905092915050565b600081905092915050565b60006118b082611b5d565b91506118bb83611b5d565b9250827fffffffffffffffffffffffffffffffffffffffffffffffffffffffffffffffff038211156118f0576118ef611c62565b5b828201905092915050565b600061190682611b5d565b915061191183611b5d565b92508261192157611920611c91565b5b828204905092915050565b6000808291508390505b60018511156119765780860481111561195257611951611c62565b5b60018516156119615780820291505b808102905061196f85611d2f565b9450611936565b94509492505050565b600061198a82611b5d565b915061199583611b67565b92506119c27fffffffffffffffffffffffffffffffffffffffffffffffffffffffffffffffff84846119ca565b905092915050565b6000826119da5760019050611a96565b816119e85760009050611a96565b81600181146119fe5760028114611a0857611a37565b6001915050611a96565b60ff841115611a1a57611a19611c62565b5b8360020a915084821115611a3157611a30611c62565b5b50611a96565b5060208310610133831016604e8410600b8410161715611a6c5782820a905083811115611a6757611a66611c62565b5b611a96565b611a79848484600161192c565b92509050818404811115611a9057611a8f611c62565b5b81810290505b9392505050565b6000611aa882611b5d565b9150611ab383611b5d565b9250817fffffffffffffffffffffffffffffffffffffffffffffffffffffffffffffffff0483118215151615611aec57611aeb611c62565b5b828202905092915050565b6000611b0282611b5d565b9150611b0d83611b5d565b925082821015611b2057611b1f611c62565b5b828203905092915050565b6000611b3682611b3d565b9050919050565b600073ffffffffffffffffffffffffffffffffffffffff82169050919050565b6000819050919050565b600060ff82169050919050565b82818337600083830152505050565b60005b83811015611ba1578082015181840152602081019050611b86565b83811115611bb0576000848401525b50505050565b60006002820490506001821680611bce57607f821691505b60208210811415611be257611be1611cc0565b5b50919050565b611bf182611d1e565b810181811067ffffffffffffffff82111715611c1057611c0f611cef565b5b80604052505050565b6000611c2482611b5d565b91507fffffffffffffffffffffffffffffffffffffffffffffffffffffffffffffffff821415611c5757611c56611c62565b5b600182019050919050565b7f4e487b7100000000000000000000000000000000000000000000000000000000600052601160045260246000fd5b7f4e487b7100000000000000000000000000000000000000000000000000000000600052601260045260246000fd5b7f4e487b7100000000000000000000000000000000000000000000000000000000600052602260045260246000fd5b7f4e487b7100000000000000000000000000000000000000000000000000000000600052604160045260246000fd5b6000601f19601f8301169050919050565b60008160011c9050919050565b7f5472616e73616374696f6e2076616c7565206d757374206d61746368206f722060008201527f657863656564207370616d466565000000000000000000000000000000000000602082015250565b50565b7f5472616e73666572206661696c65642e00000000000000000000000000000000600082015250565b7f546869732066756e6374696f6e206973207265737472696374656420746f207460008201527f686520636f6e74726163742773206f776e657200000000000000000000000000602082015250565b611e0f81611b5d565b8114611e1a57600080fd5b5056fea264697066735822122033e031eaf3bdeb2c1ba5ead41ae3b3c4fe8a83f05b1e7d1c009299cb17ce206064736f6c63430008020033",
  "immutableReferences": {},
  "source": "// SPDX-License-Identifier: UNLICENSED\npragma solidity >=0.8.2 <0.9.0;\n// pragma experimental ABIEncoderV2;\n\ncontract AudioEyes {\n  address public owner = 0x501456fbcaFf4553267b203322c6E5C6bf689817;\n\n  uint currentSpamFee = 10**17;\n\n  uint currentTx = 0;\n\n  uint queueHeight = 0;\n\n  uint tip_savings = 0;\n\n  uint tax = 10;\n\n  uint maxBonus = 10;\n\n  uint totalTipped = 0;\n\n  struct Transcription {\n  \tstring doc;\n  \tstring trans;\n  \taddress payable owner;\n  \tuint guananteedTip;\n  }\n\n  struct Document {\n  \tuint txNumber;\n  \tuint queueIndex;\n  \tuint queueHeight;\n  \tuint spamFee;\n  \tuint guananteedTip;\n  \tstring addr;\n  \taddress payable owner;\n  \tbool active;\n  }\n\n  mapping (string => Transcription) transcriptions;\n  mapping (string => Document) docs;\n  mapping (address => uint) tipTotals;\n  Document[] queue;\n\n  modifier restricted() {\n    require(\n      msg.sender == owner,\n      \"This function is restricted to the contract's owner\"\n    );\n    _;\n  }\n\n  function requestTranscription(string memory doc) public payable {\n  \trequire(msg.value >= currentSpamFee, \"Transaction value must match or exceed spamFee\");\n  \tDocument memory newDoc = Document(currentTx, queue.length, queueHeight+1, currentSpamFee, msg.value-currentSpamFee, doc, payable(msg.sender), true);\n\n  \tdocs[doc].txNumber = currentTx;\n    docs[doc].queueIndex = queue.length;\n    docs[doc].queueHeight = queueHeight+1;\n    docs[doc].spamFee = currentSpamFee;\n    docs[doc].guananteedTip = msg.value-currentSpamFee;\n    docs[doc].addr = doc;\n    docs[doc].owner = payable(msg.sender);\n    docs[doc].active = true;\n\n    queue.push(newDoc);\n\n  \tqueueHeight += 1;\n  }\n\n  function changeSpamFee(uint price) public restricted {\n  \tcurrentSpamFee = price;\n  }\n\n  function getSpamFee() public view returns(uint fee) {\n  \tfee = currentSpamFee;\n  }\n\n  function submitTranscription (string memory docAddr, string memory transcription) public {\n    // todo prevent duplicate calls draining smart contract\n  \tDocument memory doc = docs[docAddr];\n\n  \t// remove stale orders from queue\n  \tfor (uint i = 0; i < queue.length; i++) {\n  \t\tDocument memory current = queue[i];\n  \t\tif ((queueHeight - current.txNumber) >= current.queueHeight*3) {\n  \t\t\tuint index = current.queueIndex;\n  \t\t\tuint lastIndex = queue.length-1;\n  \t\t\tqueue[lastIndex].queueIndex = index;\n  \t\t\tqueue[index] = queue[lastIndex];\n  \t\t\tqueue.pop();\n  \t\t\tdocs[current.addr].active = false;\n\n        queueHeight -= 1;\n  \t\t}\n  \t}\n\n  \t// return spam fee\n    (bool success, ) = msg.sender.call{value: doc.spamFee}(\"\");\n    require(success, \"Transfer failed.\");\n\n  \t// remove doc from queue\n  \tuint Qindex = doc.queueIndex;\n  \tuint QlastIndex = queue.length-1;\n  \tqueue[QlastIndex].queueIndex = Qindex;\n  \tqueue[Qindex] = queue[QlastIndex];\n  \tqueue.pop();\n  \tdocs[docAddr].active = false;\n\n  \tqueueHeight -= 1;\n  \tcurrentTx += 1;\n\n  \t// Transcription memory newTrans = Transcription(docAddr, transcription, payable(msg.sender), doc.guananteedTip);\n  \t// transcriptions[docAddr] = newTrans;\n    transcriptions[docAddr].doc = docAddr;\n    transcriptions[docAddr].trans = transcription;\n    transcriptions[docAddr].owner = payable(msg.sender);\n    transcriptions[docAddr].guananteedTip = doc.guananteedTip;\n  }\n\n  function getTranscription (string memory docAddr) public view returns(string memory trans) {\n  \ttrans = transcriptions[docAddr].trans;\n  }\n\n  function tip (string memory docAddr) public payable {\n  \taddress payable target = transcriptions[docAddr].owner;\n\n  \tuint gross_tip = msg.value;\n  \tuint saved = gross_tip * tax / 100;\n  \ttip_savings += saved;\n  \tuint base_tip = gross_tip - saved;\n  \tuint bonus = maxBonus * tipTotals[target]**2 / totalTipped**2;\n  \tuint finished_tip = base_tip + bonus;\n\n  \ttarget.transfer(finished_tip);\n\n  \ttotalTipped += finished_tip;\n  \ttipTotals[target] += finished_tip;\n  }\n\n}",
  "sourcePath": "/Users/thecydonianosx/Desktop/AudioEyesMatic/contracts/AudioEyes.sol",
  "compiler": {
    "name": "solc",
    "version": "0.8.2+commit.661d1103.Emscripten.clang"
  },
  "schemaVersion": "3.3.4",
  "updatedAt": "2021-04-27T13:54:16.098Z",
  "networkType": "ethereum",
  "devdoc": {
    "kind": "dev",
    "methods": {},
    "version": 1
  },
  "userdoc": {
    "kind": "user",
    "methods": {},
    "version": 1
  }
}